{
  "contractName": "Shelf",
  "abi": [
    {
      "constant": true,
      "inputs": [],
      "name": "categoryCount",
      "outputs": [
        {
          "name": "",
          "type": "uint256"
        }
      ],
      "payable": false,
      "stateMutability": "view",
      "type": "function",
      "signature": "0x2be32dbb"
    },
    {
      "constant": true,
      "inputs": [],
      "name": "drugCount",
      "outputs": [
        {
          "name": "",
          "type": "uint256"
        }
      ],
      "payable": false,
      "stateMutability": "view",
      "type": "function",
      "signature": "0x7577ca37"
    },
    {
      "constant": true,
      "inputs": [
        {
          "name": "",
          "type": "uint256"
        }
      ],
      "name": "categories",
      "outputs": [
        {
          "name": "id",
          "type": "uint256"
        },
        {
          "name": "catName",
          "type": "string"
        }
      ],
      "payable": false,
      "stateMutability": "view",
      "type": "function",
      "signature": "0xc6cdbe5e"
    },
    {
      "constant": true,
      "inputs": [
        {
          "name": "",
          "type": "uint256"
        }
      ],
      "name": "drugs",
      "outputs": [
        {
          "name": "id",
          "type": "uint256"
        },
        {
          "name": "drugName",
          "type": "string"
        },
        {
          "name": "catName",
          "type": "string"
        }
      ],
      "payable": false,
      "stateMutability": "view",
      "type": "function",
      "signature": "0xfca5e61e"
    },
    {
      "anonymous": false,
      "inputs": [
        {
          "indexed": false,
          "name": "id",
          "type": "uint256"
        },
        {
          "indexed": false,
          "name": "catName",
          "type": "string"
        }
      ],
      "name": "CategoryCreated",
      "type": "event",
      "signature": "0x11c167cc9b439f0ad8bec5588159f1b06b813bc38d50c867a41b23b077be2c1a"
    },
    {
      "anonymous": false,
      "inputs": [
        {
          "indexed": false,
          "name": "id",
          "type": "uint256"
        },
        {
          "indexed": false,
          "name": "drugName",
          "type": "string"
        },
        {
          "indexed": false,
          "name": "catName",
          "type": "string"
        }
      ],
      "name": "CategoryCreated",
      "type": "event",
      "signature": "0x22c31dca291d7f417aeb56deed394f40bc020be39668f3b25e7c0414c21526df"
    },
    {
      "constant": false,
      "inputs": [
        {
          "name": "_catName",
          "type": "string"
        }
      ],
      "name": "createCategory",
      "outputs": [],
      "payable": false,
      "stateMutability": "nonpayable",
      "type": "function",
      "signature": "0xdc298682"
    },
    {
      "constant": false,
      "inputs": [
        {
          "name": "_drugName",
          "type": "string"
        },
        {
          "name": "_catName",
          "type": "string"
        }
      ],
      "name": "createDrugs",
      "outputs": [],
      "payable": false,
      "stateMutability": "nonpayable",
      "type": "function",
      "signature": "0x03beb143"
    }
  ],
  "bytecode": "0x608060405260008055600060015534801561001957600080fd5b50610a81806100296000396000f3fe608060405260043610610078576000357c0100000000000000000000000000000000000000000000000000000000900463ffffffff16806303beb1431461007d5780632be32dbb146101dc5780637577ca3714610207578063c6cdbe5e14610232578063dc298682146102ed578063fca5e61e146103b5575b600080fd5b34801561008957600080fd5b506101da600480360360408110156100a057600080fd5b81019080803590602001906401000000008111156100bd57600080fd5b8201836020820111156100cf57600080fd5b803590602001918460018302840111640100000000831117156100f157600080fd5b91908080601f016020809104026020016040519081016040528093929190818152602001838380828437600081840152601f19601f8201169050808301925050505050505091929192908035906020019064010000000081111561015457600080fd5b82018360208201111561016657600080fd5b8035906020019184600183028401116401000000008311171561018857600080fd5b91908080601f016020809104026020016040519081016040528093929190818152602001838380828437600081840152601f19601f8201169050808301925050505050505091929192905050506104dc565b005b3480156101e857600080fd5b506101f161067f565b6040518082815260200191505060405180910390f35b34801561021357600080fd5b5061021c610685565b6040518082815260200191505060405180910390f35b34801561023e57600080fd5b5061026b6004803603602081101561025557600080fd5b810190808035906020019092919050505061068b565b6040518083815260200180602001828103825283818151815260200191508051906020019080838360005b838110156102b1578082015181840152602081019050610296565b50505050905090810190601f1680156102de5780820380516001836020036101000a031916815260200191505b50935050505060405180910390f35b3480156102f957600080fd5b506103b36004803603602081101561031057600080fd5b810190808035906020019064010000000081111561032d57600080fd5b82018360208201111561033f57600080fd5b8035906020019184600183028401116401000000008311171561036157600080fd5b91908080601f016020809104026020016040519081016040528093929190818152602001838380828437600081840152601f19601f820116905080830192505050505050509192919290505050610747565b005b3480156103c157600080fd5b506103ee600480360360208110156103d857600080fd5b8101908080359060200190929190505050610856565b604051808481526020018060200180602001838103835285818151815260200191508051906020019080838360005b8381101561043857808201518184015260208101905061041d565b50505050905090810190601f1680156104655780820380516001836020036101000a031916815260200191505b50838103825284818151815260200191508051906020019080838360005b8381101561049e578082015181840152602081019050610483565b50505050905090810190601f1680156104cb5780820380516001836020036101000a031916815260200191505b509550505050505060405180910390f35b6001600081548092919060010191905055506060604051908101604052806001548152602001838152602001828152506003600060015481526020019081526020016000206000820151816000015560208201518160010190805190602001906105479291906109b0565b5060408201518160020190805190602001906105649291906109b0565b509050507f22c31dca291d7f417aeb56deed394f40bc020be39668f3b25e7c0414c21526df6001548383604051808481526020018060200180602001838103835285818151815260200191508051906020019080838360005b838110156105d85780820151818401526020810190506105bd565b50505050905090810190601f1680156106055780820380516001836020036101000a031916815260200191505b50838103825284818151815260200191508051906020019080838360005b8381101561063e578082015181840152602081019050610623565b50505050905090810190601f16801561066b5780820380516001836020036101000a031916815260200191505b509550505050505060405180910390a15050565b60005481565b60015481565b6002602052806000526040600020600091509050806000015490806001018054600181600116156101000203166002900480601f01602080910402602001604051908101604052809291908181526020018280546001816001161561010002031660029004801561073d5780601f106107125761010080835404028352916020019161073d565b820191906000526020600020905b81548152906001019060200180831161072057829003601f168201915b5050505050905082565b6000808154809291906001019190505550604080519081016040528060005481526020018281525060026000805481526020019081526020016000206000820151816000015560208201518160010190805190602001906107a99291906109b0565b509050507f11c167cc9b439f0ad8bec5588159f1b06b813bc38d50c867a41b23b077be2c1a600054826040518083815260200180602001828103825283818151815260200191508051906020019080838360005b838110156108185780820151818401526020810190506107fd565b50505050905090810190601f1680156108455780820380516001836020036101000a031916815260200191505b50935050505060405180910390a150565b6003602052806000526040600020600091509050806000015490806001018054600181600116156101000203166002900480601f0160208091040260200160405190810160405280929190818152602001828054600181600116156101000203166002900480156109085780601f106108dd57610100808354040283529160200191610908565b820191906000526020600020905b8154815290600101906020018083116108eb57829003601f168201915b505050505090806002018054600181600116156101000203166002900480601f0160208091040260200160405190810160405280929190818152602001828054600181600116156101000203166002900480156109a65780601f1061097b576101008083540402835291602001916109a6565b820191906000526020600020905b81548152906001019060200180831161098957829003601f168201915b5050505050905083565b828054600181600116156101000203166002900490600052602060002090601f016020900481019282601f106109f157805160ff1916838001178555610a1f565b82800160010185558215610a1f579182015b82811115610a1e578251825591602001919060010190610a03565b5b509050610a2c9190610a30565b5090565b610a5291905b80821115610a4e576000816000905550600101610a36565b5090565b9056fea165627a7a72305820c614d6db1a1a213c9b37f6ba7a97e299f789aa63ac09c214f74d2e89b2b81d140029",
  "source": "pragma solidity ^0.5.0;\r\n\r\ncontract Shelf {\r\n    uint public categoryCount = 0;\r\n    uint public drugCount = 0;\r\n\r\n    struct Category {\r\n        uint id;\r\n        string catName;\r\n    }\r\n\r\n    mapping(uint => Category) public categories;\r\n\r\n    event CategoryCreated(\r\n        uint id,\r\n        string catName\r\n    );\r\n\r\n    function createCategory(string memory _catName) public {\r\n        categoryCount ++;\r\n        categories[categoryCount] = Category(categoryCount, _catName);\r\n        emit CategoryCreated(categoryCount, _catName);\r\n    }\r\n    struct Drugs {\r\n        uint id;\r\n        string drugName;\r\n        string catName;\r\n    }\r\n\r\n    mapping(uint => Drugs) public drugs;\r\n\r\n    event CategoryCreated(\r\n        uint id,\r\n        string drugName,\r\n        string catName\r\n    );\r\n\r\n    function createDrugs(string memory _drugName, string memory _catName) public {\r\n        drugCount ++;\r\n        drugs[drugCount] = Drugs(drugCount, _drugName, _catName);\r\n        emit CategoryCreated(drugCount, _drugName, _catName);\r\n    }\r\n}",
  "sourcePath": "C:/Users/SAPELED3/Desktop/BLOCKCHAIN/backend/contracts/Shelf.sol",
  "compiler": {
    "name": "solc",
    "version": "0.5.0+commit.1d4f565a.Emscripten.clang"
  },
  "schemaVersion": "3.0.1",
  "updatedAt": "2020-04-11T02:00:36.515Z",
  "devdoc": {
    "methods": {}
  },
  "userdoc": {
    "methods": {}
  }
}